:0E01B600E45389F0438901F58AF58CD28CFF61
:0101C4002218
:1001A4008005EF658C6006AF8CAD8A80F5EFFEEDBF
:0101B400FF4B
:0101B5002227
:06009200C2917F047E0014
:10009800E4FDFCEF25E0FFEE33AB07FA1201A4AC58
:1000A80006AD07ED2BFBEC3AFAC3EB9DEA9C500931
:1000B8001201A4AC06AD0780F0D3EB9DEA9C400981
:0900C8001201A4AC06AD0780F0A2
:0100D100220C
:10016F008F828E83E5821582AE83700215834E6077
:0B017F00097FE87E0312009880EA224E
:0901ED005392FD5391FDD29122C1
:10000300D20030003E30002D5392FD5391FDD2912A
:100013007F107E00120098C2917F267E0212009804
:10002300D2915392FD4391027F427E00120098A227
:1000330091920080D07FF47E01120098A291B39236
:0B0043000080BF5392FD5391FDD2914D
:01004E00228F
:020111008F0A53
:100113005392FD5391FDE4F9D2917F017E001200C9
:1001230098120092E50A1392917F427E0012009882
:10013300E50AC313F50A09B908DED2917F0A7E00E6
:030143000200981F
:10004F00E4F50AF95392FD5391FDD2917F017E00A1
:10005F00120098E50AC313F50A120092D291539237
:10006F00FD439102120094309103430A807F427E38
:10007F000012009809B908CC5392FD5391FDD2910B
:02008F00AF0AB6
:01009100224C
:0D01D4001200037FCC1201117F44020111C3
:100146001200037FCC1201117FBE12011112004F63
:100156008F0812004F8F09EFFEE508FFEF7804CEF7
:08016600A2E713CE13D8F8FF45
:01016E00226E
:0F01C500758921759850758DFD758BFDD28E2231
:0801F6008F993099FDC2992296
:10018A00AE07EE75F00A842430FF1201F6EE75F020
:0A019A000A84E5F02430FF0201F6AC
:1000D2001201B61201C51201ED1201D47FE87E03AE
:1000E20012016F120146AD07AC06C3EC6480948026
:1000F200500C7F2D1201F6C3E49DFDE49CFCAF057C
:0F01020012018A7F0D1201F67F0A1201F680CAE0
:030000000201E119
:0C01E100787FE4F6D8FD7581200200D282
:00000001FF
