:0300000002007586
:0C007500787FE4F6D8FD75810902003F99
:10000300007C8282827C0000000004FE000000006D
:1000130000C4A2928A84000000448292926C000081
:0600A200E4F594F5932241
:0C006800900500E0FFC2B520E7F6D2B51D
:010074002269
:0B008100AE07120068900000EEF022B5
:0B008C00AE07120068900200EEF022A8
:100023007DB8AF051200817F40120081E4FC7FA3FD
:0B00330012008C0CBC40F70DBDC0E7B4
:01003E00229F
:100058001200A21200687FC01200817F3F02008157
:0B009700EF1FAC0670011E4C70F6223B
:10003F007F607EEA1200971200587590FF1200231E
:09004F007F107E2712009780F457
:00000001FF
