:090297000708323B170F08070AA3
:100200007F607EEA1202197F607EEA1202197F6027
:090210007EEA1202197F607EEA09
:0B021900EF1FAC0670011E4C70F622B7
:070224001202A9D2C67F8E71
:10022B00E4FEEF1392C5D2C4EFC313FFC2C40EBEDC
:02023B0008F0C9
:01023D00229E
:10025800E4FFFEEFC313FF30C503430780D2C4C2D7
:05026800C40EBE08EE0B
:01026D00226E
:0702A900C2C6C2C4D2C62286
:0D027D00120224E4FF12022BC2C5C2C622E9
:0D028A001202247F8012022BC2C5C2C622C0
:0601B8008B0F8A10891173
:1001BE0012027D1202A9D2C67FBE12022BE4FDAB43
:1001CE000FAA10A9118D82758300120169FF75F0B7
:1001DE000A84C454F0FEEF75F00A84E5F02EFF1287
:1001EE00022B0DBD07D9E4FF12022BC2C5C2C602F7
:0201FE00028A73
:06010E008B128A13891414
:1001140012027D1202A9D2C67FBF12022BE4F5920D
:10012400759102FD120258AB12AA13A9148D82759F
:100134008300EF1201968D82758300120169FF54CA
:10014400F0C4540F75F00AA4FEEF540F2E8D82757F
:1001540083001201960DBD07CBE4F592F591C2C55B
:05016400C2C602028A80
:0F026E00758921759850758DFD758BFDD28E2287
:0802A1008F993099FDC29922EA
:10023E00AE07EE75F00A842430FF1202A1EE75F0BF
:0A024E000A84E5F02430FF0202A14B
:10008F00E4F592F59153B4BF53B3BF43BB40C2C61F
:10009F0053B4DF53B3DF43BB20D2C553B4EF53B3D5
:1000AF00EF43BB10C2C412026E7B007A00790812B4
:1000BF00010EAF0E12023E7F2D1202A1AF0C1202E3
:1000CF003E7F2D1202A1AF0B12023E7F201202A122
:1000DF00AF0A12023E7F3A1202A1AF0912023E7F0F
:1000EF003A1202A1AF0812023E7F0D1202A17F0A3F
:0F00FF001202A11202001202151202000200B832
:03000000020003F8
:0C000300787FE4F6D8FD75811402004AF5
:10016900BB010CE58229F582E5833AF583E022504B
:1001790006E92582F8E622BBFE06E92582F8E22295
:0D018900E58229F582E5833AF583E49322AF
:10019600F8BB010DE58229F582E5833AF583E8F09F
:1001A600225006E92582C8F622BBFE05E92582C84B
:0201B600F22233
:10000F0002008FE493A3F8E493A34003F68001F278
:10001F0008DFF48029E493A3F85407240CC8C333F2
:10002F00C4540F4420C8834004F456800146F6DFC1
:10003F00E4800B0102040810204080900297E47EB8
:10004F00019360BCA3FF543F30E509541FFEE493B6
:10005F00A360010ECF54C025E060A840B8E493A37D
:10006F00FAE493A3F8E493A3C8C582C8CAC583CAA8
:10007F00F0A3C8C582C8CAC583CADFE9DEE780BE60
:0102A000005D
:00000001FF
